{
  "_format": "hh-sol-artifact-1",
  "contractName": "Leadguitars",
  "sourceName": "contracts/Leadguitars.sol",
  "abi": [
    {
      "inputs": [
        {
          "internalType": "string",
          "name": "_name",
          "type": "string"
        },
        {
          "internalType": "string",
          "name": "_symbol",
          "type": "string"
        }
      ],
      "stateMutability": "nonpayable",
      "type": "constructor"
    },
    {
      "anonymous": false,
      "inputs": [
        {
          "indexed": true,
          "internalType": "address",
          "name": "_owner",
          "type": "address"
        },
        {
          "indexed": true,
          "internalType": "address",
          "name": "_operator",
          "type": "address"
        },
        {
          "indexed": false,
          "internalType": "bool",
          "name": "_approved",
          "type": "bool"
        }
      ],
      "name": "ApprovalForAll",
      "type": "event"
    },
    {
      "anonymous": false,
      "inputs": [
        {
          "indexed": true,
          "internalType": "address",
          "name": "_operator",
          "type": "address"
        },
        {
          "indexed": true,
          "internalType": "address",
          "name": "_from",
          "type": "address"
        },
        {
          "indexed": true,
          "internalType": "address",
          "name": "_to",
          "type": "address"
        },
        {
          "indexed": false,
          "internalType": "uint256[]",
          "name": "_ids",
          "type": "uint256[]"
        },
        {
          "indexed": false,
          "internalType": "uint256[]",
          "name": "_values",
          "type": "uint256[]"
        }
      ],
      "name": "TransferBatch",
      "type": "event"
    },
    {
      "anonymous": false,
      "inputs": [
        {
          "indexed": true,
          "internalType": "address",
          "name": "_operator",
          "type": "address"
        },
        {
          "indexed": true,
          "internalType": "address",
          "name": "_from",
          "type": "address"
        },
        {
          "indexed": true,
          "internalType": "address",
          "name": "_to",
          "type": "address"
        },
        {
          "indexed": false,
          "internalType": "uint256",
          "name": "_id",
          "type": "uint256"
        },
        {
          "indexed": false,
          "internalType": "uint256",
          "name": "_value",
          "type": "uint256"
        }
      ],
      "name": "TransferSingle",
      "type": "event"
    },
    {
      "inputs": [
        {
          "internalType": "address",
          "name": "account",
          "type": "address"
        },
        {
          "internalType": "uint256",
          "name": "id",
          "type": "uint256"
        }
      ],
      "name": "balanceOf",
      "outputs": [
        {
          "internalType": "uint256",
          "name": "",
          "type": "uint256"
        }
      ],
      "stateMutability": "view",
      "type": "function"
    },
    {
      "inputs": [
        {
          "internalType": "address[]",
          "name": "accounts",
          "type": "address[]"
        },
        {
          "internalType": "uint256[]",
          "name": "ids",
          "type": "uint256[]"
        }
      ],
      "name": "balanceOfBatch",
      "outputs": [
        {
          "internalType": "uint256[]",
          "name": "",
          "type": "uint256[]"
        }
      ],
      "stateMutability": "view",
      "type": "function"
    },
    {
      "inputs": [
        {
          "internalType": "address",
          "name": "owner",
          "type": "address"
        },
        {
          "internalType": "address",
          "name": "operator",
          "type": "address"
        }
      ],
      "name": "isApprovedForAll",
      "outputs": [
        {
          "internalType": "bool",
          "name": "",
          "type": "bool"
        }
      ],
      "stateMutability": "view",
      "type": "function"
    },
    {
      "inputs": [
        {
          "internalType": "uint256",
          "name": "amount",
          "type": "uint256"
        },
        {
          "internalType": "string",
          "name": "_uri",
          "type": "string"
        }
      ],
      "name": "mint",
      "outputs": [],
      "stateMutability": "nonpayable",
      "type": "function"
    },
    {
      "inputs": [],
      "name": "name",
      "outputs": [
        {
          "internalType": "string",
          "name": "",
          "type": "string"
        }
      ],
      "stateMutability": "view",
      "type": "function"
    },
    {
      "inputs": [
        {
          "internalType": "address",
          "name": "from",
          "type": "address"
        },
        {
          "internalType": "address",
          "name": "to",
          "type": "address"
        },
        {
          "internalType": "uint256[]",
          "name": "ids",
          "type": "uint256[]"
        },
        {
          "internalType": "uint256[]",
          "name": "amounts",
          "type": "uint256[]"
        },
        {
          "internalType": "bytes",
          "name": "_data",
          "type": "bytes"
        }
      ],
      "name": "safeBatchTransferFrom",
      "outputs": [],
      "stateMutability": "nonpayable",
      "type": "function"
    },
    {
      "inputs": [
        {
          "internalType": "address",
          "name": "from",
          "type": "address"
        },
        {
          "internalType": "address",
          "name": "to",
          "type": "address"
        },
        {
          "internalType": "uint256",
          "name": "id",
          "type": "uint256"
        },
        {
          "internalType": "uint256",
          "name": "amount",
          "type": "uint256"
        },
        {
          "internalType": "bytes",
          "name": "_data",
          "type": "bytes"
        }
      ],
      "name": "safeTransferFrom",
      "outputs": [],
      "stateMutability": "nonpayable",
      "type": "function"
    },
    {
      "inputs": [
        {
          "internalType": "address",
          "name": "operator",
          "type": "address"
        },
        {
          "internalType": "bool",
          "name": "approved",
          "type": "bool"
        }
      ],
      "name": "setApprovalForAll",
      "outputs": [],
      "stateMutability": "nonpayable",
      "type": "function"
    },
    {
      "inputs": [
        {
          "internalType": "bytes4",
          "name": "interfaceId",
          "type": "bytes4"
        }
      ],
      "name": "supportsInterface",
      "outputs": [
        {
          "internalType": "bool",
          "name": "",
          "type": "bool"
        }
      ],
      "stateMutability": "pure",
      "type": "function"
    },
    {
      "inputs": [],
      "name": "symbol",
      "outputs": [
        {
          "internalType": "string",
          "name": "",
          "type": "string"
        }
      ],
      "stateMutability": "view",
      "type": "function"
    },
    {
      "inputs": [],
      "name": "tokenCount",
      "outputs": [
        {
          "internalType": "uint256",
          "name": "",
          "type": "uint256"
        }
      ],
      "stateMutability": "view",
      "type": "function"
    },
    {
      "inputs": [
        {
          "internalType": "uint256",
          "name": "tokenID",
          "type": "uint256"
        }
      ],
      "name": "uri",
      "outputs": [
        {
          "internalType": "string",
          "name": "",
          "type": "string"
        }
      ],
      "stateMutability": "view",
      "type": "function"
    }
  ],
  "bytecode": "0x60806040523480156200001157600080fd5b5060405162002719380380620027198339818101604052810190620000379190620001f6565b8160029081620000489190620004c6565b5080600390816200005a9190620004c6565b505050620005ad565b6000604051905090565b600080fd5b600080fd5b600080fd5b600080fd5b6000601f19601f8301169050919050565b7f4e487b7100000000000000000000000000000000000000000000000000000000600052604160045260246000fd5b620000cc8262000081565b810181811067ffffffffffffffff82111715620000ee57620000ed62000092565b5b80604052505050565b60006200010362000063565b9050620001118282620000c1565b919050565b600067ffffffffffffffff82111562000134576200013362000092565b5b6200013f8262000081565b9050602081019050919050565b60005b838110156200016c5780820151818401526020810190506200014f565b60008484015250505050565b60006200018f620001898462000116565b620000f7565b905082815260208101848484011115620001ae57620001ad6200007c565b5b620001bb8482856200014c565b509392505050565b600082601f830112620001db57620001da62000077565b5b8151620001ed84826020860162000178565b91505092915050565b6000806040838503121562000210576200020f6200006d565b5b600083015167ffffffffffffffff81111562000231576200023062000072565b5b6200023f85828601620001c3565b925050602083015167ffffffffffffffff81111562000263576200026262000072565b5b6200027185828601620001c3565b9150509250929050565b600081519050919050565b7f4e487b7100000000000000000000000000000000000000000000000000000000600052602260045260246000fd5b60006002820490506001821680620002ce57607f821691505b602082108103620002e457620002e362000286565b5b50919050565b60008190508160005260206000209050919050565b60006020601f8301049050919050565b600082821b905092915050565b6000600883026200034e7fffffffffffffffffffffffffffffffffffffffffffffffffffffffffffffffff826200030f565b6200035a86836200030f565b95508019841693508086168417925050509392505050565b6000819050919050565b6000819050919050565b6000620003a7620003a16200039b8462000372565b6200037c565b62000372565b9050919050565b6000819050919050565b620003c38362000386565b620003db620003d282620003ae565b8484546200031c565b825550505050565b600090565b620003f2620003e3565b620003ff818484620003b8565b505050565b5b8181101562000427576200041b600082620003e8565b60018101905062000405565b5050565b601f82111562000476576200044081620002ea565b6200044b84620002ff565b810160208510156200045b578190505b620004736200046a85620002ff565b83018262000404565b50505b505050565b600082821c905092915050565b60006200049b600019846008026200047b565b1980831691505092915050565b6000620004b6838362000488565b9150826002028217905092915050565b620004d1826200027b565b67ffffffffffffffff811115620004ed57620004ec62000092565b5b620004f98254620002b5565b620005068282856200042b565b600060209050601f8311600181146200053e576000841562000529578287015190505b620005358582620004a8565b865550620005a5565b601f1984166200054e86620002ea565b60005b82811015620005785784890151825560018201915060208501945060208101905062000551565b8683101562000598578489015162000594601f89168262000488565b8355505b6001600288020188555050505b505050505050565b61215c80620005bd6000396000f3fe608060405234801561001057600080fd5b50600436106100b35760003560e01c806377097fc81161007157806377097fc8146101b257806395d89b41146101ce5780639f181b5e146101ec578063a22cb4651461020a578063e985e9c514610226578063f242432a14610256576100b3565b8062fdd58e146100b857806301ffc9a7146100e857806306fdde03146101185780630e89341c146101365780632eb2c2d6146101665780634e1273f414610182575b600080fd5b6100d260048036038101906100cd9190610ff7565b610272565b6040516100df9190611046565b60405180910390f35b61010260048036038101906100fd91906110b9565b61033a565b60405161010f9190611101565b60405180910390f35b61012061039c565b60405161012d91906111ac565b60405180910390f35b610150600480360381019061014b91906111ce565b61042a565b60405161015d91906111ac565b60405180910390f35b610180600480360381019061017b919061139e565b6104cf565b005b61019c60048036038101906101979190611533565b61073a565b6040516101a99190611669565b60405180910390f35b6101cc60048036038101906101c79190611740565b610855565b005b6101d66109ee565b6040516101e391906111ac565b60405180910390f35b6101f4610a7c565b6040516102019190611046565b60405180910390f35b610224600480360381019061021f91906117c8565b610a82565b005b610240600480360381019061023b9190611808565b610b7f565b60405161024d9190611101565b60405180910390f35b610270600480360381019061026b9190611848565b610c13565b005b60008073ffffffffffffffffffffffffffffffffffffffff168373ffffffffffffffffffffffffffffffffffffffff16036102e2576040517f08c379a00000000000000000000000000000000000000000000000000000000081526004016102d99061192e565b60405180910390fd5b60008083815260200190815260200160002060008473ffffffffffffffffffffffffffffffffffffffff1673ffffffffffffffffffffffffffffffffffffffff16815260200190815260200160002054905092915050565b600063d9b67a2660e01b827bffffffffffffffffffffffffffffffffffffffffffffffffffffffff191614806103955750630e89341c60e01b827bffffffffffffffffffffffffffffffffffffffffffffffffffffffff1916145b9050919050565b600280546103a99061197d565b80601f01602080910402602001604051908101604052809291908181526020018280546103d59061197d565b80156104225780601f106103f757610100808354040283529160200191610422565b820191906000526020600020905b81548152906001019060200180831161040557829003601f168201915b505050505081565b606060056000838152602001908152602001600020805461044a9061197d565b80601f01602080910402602001604051908101604052809291908181526020018280546104769061197d565b80156104c35780601f10610498576101008083540402835291602001916104c3565b820191906000526020600020905b8154815290600101906020018083116104a657829003601f168201915b50505050509050919050565b8573ffffffffffffffffffffffffffffffffffffffff163373ffffffffffffffffffffffffffffffffffffffff16148061050f575061050e8633610b7f565b5b61054e576040517f08c379a000000000000000000000000000000000000000000000000000000000815260040161054590611a20565b60405180910390fd5b600073ffffffffffffffffffffffffffffffffffffffff168573ffffffffffffffffffffffffffffffffffffffff16036105bd576040517f08c379a00000000000000000000000000000000000000000000000000000000081526004016105b490611a8c565b60405180910390fd5b8251845114610601576040517f08c379a00000000000000000000000000000000000000000000000000000000081526004016105f890611b1e565b60405180910390fd5b60005b845181101561066c57600085828151811061062257610621611b3e565b5b60200260200101519050600085838151811061064157610640611b3e565b5b6020026020010151905061065789898484610dda565b5050808061066490611b9c565b915050610604565b508473ffffffffffffffffffffffffffffffffffffffff168673ffffffffffffffffffffffffffffffffffffffff163373ffffffffffffffffffffffffffffffffffffffff167f4a39dc06d4c0dbc64b70af90fd698a233a518aa5d07e595d983b8c0526c8f7fb87876040516106e3929190611be4565b60405180910390a46106f3610f3d565b610732576040517f08c379a000000000000000000000000000000000000000000000000000000000815260040161072990611c67565b60405180910390fd5b505050505050565b60608151835114610780576040517f08c379a000000000000000000000000000000000000000000000000000000000815260040161077790611cf9565b60405180910390fd5b6000835167ffffffffffffffff81111561079d5761079c611200565b5b6040519080825280602002602001820160405280156107cb5781602001602082028036833780820191505090505b50905060005b845181101561084a576108188582815181106107f0576107ef611b3e565b5b602002602001015185838151811061080b5761080a611b3e565b5b6020026020010151610272565b82828151811061082b5761082a611b3e565b5b602002602001018181525050808061084290611b9c565b9150506107d1565b508091505092915050565b600073ffffffffffffffffffffffffffffffffffffffff163373ffffffffffffffffffffffffffffffffffffffff16036108c4576040517f08c379a00000000000000000000000000000000000000000000000000000000081526004016108bb90611d8b565b60405180910390fd5b6001600460008282546108d79190611dab565b9250508190555081600080600454815260200190815260200160002060003373ffffffffffffffffffffffffffffffffffffffff1673ffffffffffffffffffffffffffffffffffffffff168152602001908152602001600020600082825461093f9190611dab565b925050819055508060056000600454815260200190815260200160002090816109689190611f8b565b503373ffffffffffffffffffffffffffffffffffffffff16600073ffffffffffffffffffffffffffffffffffffffff163373ffffffffffffffffffffffffffffffffffffffff167fc3d58168c5ae7397731d063d5bbf3d657854427343f4c083240f7aacaa2d0f62600454866040516109e292919061205d565b60405180910390a45050565b600380546109fb9061197d565b80601f0160208091040260200160405190810160405280929190818152602001828054610a279061197d565b8015610a745780601f10610a4957610100808354040283529160200191610a74565b820191906000526020600020905b815481529060010190602001808311610a5757829003601f168201915b505050505081565b60045481565b80600160003373ffffffffffffffffffffffffffffffffffffffff1673ffffffffffffffffffffffffffffffffffffffff16815260200190815260200160002060008473ffffffffffffffffffffffffffffffffffffffff1673ffffffffffffffffffffffffffffffffffffffff16815260200190815260200160002060006101000a81548160ff0219169083151502179055508173ffffffffffffffffffffffffffffffffffffffff163373ffffffffffffffffffffffffffffffffffffffff167f17307eab39ab6107e8899845ad3d59bd9653f200f220920489ca2b5937696c3183604051610b739190611101565b60405180910390a35050565b6000600160008473ffffffffffffffffffffffffffffffffffffffff1673ffffffffffffffffffffffffffffffffffffffff16815260200190815260200160002060008373ffffffffffffffffffffffffffffffffffffffff1673ffffffffffffffffffffffffffffffffffffffff16815260200190815260200160002060009054906101000a900460ff16905092915050565b8573ffffffffffffffffffffffffffffffffffffffff163373ffffffffffffffffffffffffffffffffffffffff161480610c535750610c528633610b7f565b5b610c92576040517f08c379a0000000000000000000000000000000000000000000000000000000008152600401610c8990611a20565b60405180910390fd5b600073ffffffffffffffffffffffffffffffffffffffff168573ffffffffffffffffffffffffffffffffffffffff1603610d01576040517f08c379a0000000000000000000000000000000000000000000000000000000008152600401610cf890611a8c565b60405180910390fd5b610d0d86868686610dda565b8473ffffffffffffffffffffffffffffffffffffffff168673ffffffffffffffffffffffffffffffffffffffff163373ffffffffffffffffffffffffffffffffffffffff167fc3d58168c5ae7397731d063d5bbf3d657854427343f4c083240f7aacaa2d0f628787604051610d8392919061205d565b60405180910390a4610d93610f46565b610dd2576040517f08c379a0000000000000000000000000000000000000000000000000000000008152600401610dc990611c67565b60405180910390fd5b505050505050565b600080600084815260200190815260200160002060008673ffffffffffffffffffffffffffffffffffffffff1673ffffffffffffffffffffffffffffffffffffffff16815260200190815260200160002054905081811015610e71576040517f08c379a0000000000000000000000000000000000000000000000000000000008152600401610e68906120d2565b60405180910390fd5b8181610e7d91906120f2565b60008085815260200190815260200160002060008773ffffffffffffffffffffffffffffffffffffffff1673ffffffffffffffffffffffffffffffffffffffff168152602001908152602001600020819055508160008085815260200190815260200160002060008673ffffffffffffffffffffffffffffffffffffffff1673ffffffffffffffffffffffffffffffffffffffff1681526020019081526020016000206000828254610f2f9190611dab565b925050819055505050505050565b60006001905090565b60006001905090565b6000604051905090565b600080fd5b600080fd5b600073ffffffffffffffffffffffffffffffffffffffff82169050919050565b6000610f8e82610f63565b9050919050565b610f9e81610f83565b8114610fa957600080fd5b50565b600081359050610fbb81610f95565b92915050565b6000819050919050565b610fd481610fc1565b8114610fdf57600080fd5b50565b600081359050610ff181610fcb565b92915050565b6000806040838503121561100e5761100d610f59565b5b600061101c85828601610fac565b925050602061102d85828601610fe2565b9150509250929050565b61104081610fc1565b82525050565b600060208201905061105b6000830184611037565b92915050565b60007fffffffff0000000000000000000000000000000000000000000000000000000082169050919050565b61109681611061565b81146110a157600080fd5b50565b6000813590506110b38161108d565b92915050565b6000602082840312156110cf576110ce610f59565b5b60006110dd848285016110a4565b91505092915050565b60008115159050919050565b6110fb816110e6565b82525050565b600060208201905061111660008301846110f2565b92915050565b600081519050919050565b600082825260208201905092915050565b60005b8381101561115657808201518184015260208101905061113b565b60008484015250505050565b6000601f19601f8301169050919050565b600061117e8261111c565b6111888185611127565b9350611198818560208601611138565b6111a181611162565b840191505092915050565b600060208201905081810360008301526111c68184611173565b905092915050565b6000602082840312156111e4576111e3610f59565b5b60006111f284828501610fe2565b91505092915050565b600080fd5b7f4e487b7100000000000000000000000000000000000000000000000000000000600052604160045260246000fd5b61123882611162565b810181811067ffffffffffffffff8211171561125757611256611200565b5b80604052505050565b600061126a610f4f565b9050611276828261122f565b919050565b600067ffffffffffffffff82111561129657611295611200565b5b602082029050602081019050919050565b600080fd5b60006112bf6112ba8461127b565b611260565b905080838252602082019050602084028301858111156112e2576112e16112a7565b5b835b8181101561130b57806112f78882610fe2565b8452602084019350506020810190506112e4565b5050509392505050565b600082601f83011261132a576113296111fb565b5b813561133a8482602086016112ac565b91505092915050565b600080fd5b60008083601f84011261135e5761135d6111fb565b5b8235905067ffffffffffffffff81111561137b5761137a611343565b5b602083019150836001820283011115611397576113966112a7565b5b9250929050565b60008060008060008060a087890312156113bb576113ba610f59565b5b60006113c989828a01610fac565b96505060206113da89828a01610fac565b955050604087013567ffffffffffffffff8111156113fb576113fa610f5e565b5b61140789828a01611315565b945050606087013567ffffffffffffffff81111561142857611427610f5e565b5b61143489828a01611315565b935050608087013567ffffffffffffffff81111561145557611454610f5e565b5b61146189828a01611348565b92509250509295509295509295565b600067ffffffffffffffff82111561148b5761148a611200565b5b602082029050602081019050919050565b60006114af6114aa84611470565b611260565b905080838252602082019050602084028301858111156114d2576114d16112a7565b5b835b818110156114fb57806114e78882610fac565b8452602084019350506020810190506114d4565b5050509392505050565b600082601f83011261151a576115196111fb565b5b813561152a84826020860161149c565b91505092915050565b6000806040838503121561154a57611549610f59565b5b600083013567ffffffffffffffff81111561156857611567610f5e565b5b61157485828601611505565b925050602083013567ffffffffffffffff81111561159557611594610f5e565b5b6115a185828601611315565b9150509250929050565b600081519050919050565b600082825260208201905092915050565b6000819050602082019050919050565b6115e081610fc1565b82525050565b60006115f283836115d7565b60208301905092915050565b6000602082019050919050565b6000611616826115ab565b61162081856115b6565b935061162b836115c7565b8060005b8381101561165c57815161164388826115e6565b975061164e836115fe565b92505060018101905061162f565b5085935050505092915050565b60006020820190508181036000830152611683818461160b565b905092915050565b600080fd5b600067ffffffffffffffff8211156116ab576116aa611200565b5b6116b482611162565b9050602081019050919050565b82818337600083830152505050565b60006116e36116de84611690565b611260565b9050828152602081018484840111156116ff576116fe61168b565b5b61170a8482856116c1565b509392505050565b600082601f830112611727576117266111fb565b5b81356117378482602086016116d0565b91505092915050565b6000806040838503121561175757611756610f59565b5b600061176585828601610fe2565b925050602083013567ffffffffffffffff81111561178657611785610f5e565b5b61179285828601611712565b9150509250929050565b6117a5816110e6565b81146117b057600080fd5b50565b6000813590506117c28161179c565b92915050565b600080604083850312156117df576117de610f59565b5b60006117ed85828601610fac565b92505060206117fe858286016117b3565b9150509250929050565b6000806040838503121561181f5761181e610f59565b5b600061182d85828601610fac565b925050602061183e85828601610fac565b9150509250929050565b60008060008060008060a0878903121561186557611864610f59565b5b600061187389828a01610fac565b965050602061188489828a01610fac565b955050604061189589828a01610fe2565b94505060606118a689828a01610fe2565b935050608087013567ffffffffffffffff8111156118c7576118c6610f5e565b5b6118d389828a01611348565b92509250509295509295509295565b7f41646472657373206973207a65726f0000000000000000000000000000000000600082015250565b6000611918600f83611127565b9150611923826118e2565b602082019050919050565b600060208201905081810360008301526119478161190b565b9050919050565b7f4e487b7100000000000000000000000000000000000000000000000000000000600052602260045260246000fd5b6000600282049050600182168061199557607f821691505b6020821081036119a8576119a761194e565b5b50919050565b7f6d73672e73656e646572206973206e6f7420746865206f70657261746f72206f60008201527f72206f776e657200000000000000000000000000000000000000000000000000602082015250565b6000611a0a602783611127565b9150611a15826119ae565b604082019050919050565b60006020820190508181036000830152611a39816119fd565b9050919050565b7f4164647265737320697320300000000000000000000000000000000000000000600082015250565b6000611a76600c83611127565b9150611a8182611a40565b602082019050919050565b60006020820190508181036000830152611aa581611a69565b9050919050565b7f49447320616e20616d6f756e742073686f756c64206265206f6620746865207360008201527f616d65206c656e67746800000000000000000000000000000000000000000000602082015250565b6000611b08602a83611127565b9150611b1382611aac565b604082019050919050565b60006020820190508181036000830152611b3781611afb565b9050919050565b7f4e487b7100000000000000000000000000000000000000000000000000000000600052603260045260246000fd5b7f4e487b7100000000000000000000000000000000000000000000000000000000600052601160045260246000fd5b6000611ba782610fc1565b91507fffffffffffffffffffffffffffffffffffffffffffffffffffffffffffffffff8203611bd957611bd8611b6d565b5b600182019050919050565b60006040820190508181036000830152611bfe818561160b565b90508181036020830152611c12818461160b565b90509392505050565b7f5265636569766572206973206e6f7420696d706c656d656e7465640000000000600082015250565b6000611c51601b83611127565b9150611c5c82611c1b565b602082019050919050565b60006020820190508181036000830152611c8081611c44565b9050919050565b7f4163636f756e747320616e642069647320617265206e6f74207468652073616d60008201527f65206c656e677468000000000000000000000000000000000000000000000000602082015250565b6000611ce3602883611127565b9150611cee82611c87565b604082019050919050565b60006020820190508181036000830152611d1281611cd6565b9050919050565b7f796f7520617265206d696e74696e6720746f20746865205a65726f204164647260008201527f6573730000000000000000000000000000000000000000000000000000000000602082015250565b6000611d75602383611127565b9150611d8082611d19565b604082019050919050565b60006020820190508181036000830152611da481611d68565b9050919050565b6000611db682610fc1565b9150611dc183610fc1565b9250828201905080821115611dd957611dd8611b6d565b5b92915050565b60008190508160005260206000209050919050565b60006020601f8301049050919050565b600082821b905092915050565b600060088302611e417fffffffffffffffffffffffffffffffffffffffffffffffffffffffffffffffff82611e04565b611e4b8683611e04565b95508019841693508086168417925050509392505050565b6000819050919050565b6000611e88611e83611e7e84610fc1565b611e63565b610fc1565b9050919050565b6000819050919050565b611ea283611e6d565b611eb6611eae82611e8f565b848454611e11565b825550505050565b600090565b611ecb611ebe565b611ed6818484611e99565b505050565b5b81811015611efa57611eef600082611ec3565b600181019050611edc565b5050565b601f821115611f3f57611f1081611ddf565b611f1984611df4565b81016020851015611f28578190505b611f3c611f3485611df4565b830182611edb565b50505b505050565b600082821c905092915050565b6000611f6260001984600802611f44565b1980831691505092915050565b6000611f7b8383611f51565b9150826002028217905092915050565b611f948261111c565b67ffffffffffffffff811115611fad57611fac611200565b5b611fb7825461197d565b611fc2828285611efe565b600060209050601f831160018114611ff55760008415611fe3578287015190505b611fed8582611f6f565b865550612055565b601f19841661200386611ddf565b60005b8281101561202b57848901518255600182019150602085019450602081019050612006565b868310156120485784890151612044601f891682611f51565b8355505b6001600288020188555050505b505050505050565b60006040820190506120726000830185611037565b61207f6020830184611037565b9392505050565b7f496e73756666696369656e742042616c616e6365000000000000000000000000600082015250565b60006120bc601483611127565b91506120c782612086565b602082019050919050565b600060208201905081810360008301526120eb816120af565b9050919050565b60006120fd82610fc1565b915061210883610fc1565b92508282039050818111156121205761211f611b6d565b5b9291505056fea2646970667358221220b575b5b1372db4442e7924dd281655ce6920b037d19f12ef2ae989e793d99c2264736f6c63430008110033",
  "linkReferences": {},
  "deployedLinkReferences": {}
}